:020000040800F2
:10000000600600200D020008150200081702000813
:10001000190200081B0200081D0200080000000071
:100020000000000000000000000000001F020008A7
:100030002102000800000000230200082502000839
:1000400027020008270200082702000827020008EC
:1000500027020008270200082702000827020008DC
:1000600027020008270200082702000827020008CC
:1000700027020008270200082702000827020008BC
:1000800027020008270200082702000827020008AC
:10009000270200082702000827020008270200089C
:1000A00075030008910300082702000827020008D2
:1000B000AD030008C5030008000000002702000887
:1000C00027020008000000000000000027020008CE
:1000D000000000002702000827020008270200088D
:1000E00027020008270200080000000000000000AE
:1000F0000000000000000000000000000000000000
:1001000000000000000000000000000000000000EF
:10011000000000000000000027020008270200087D
:1001200000000000000000000000000000000000CF
:1001300000000000000000000000000000000000BF
:10014000270200082702000800000000000000004D
:10015000000000000000000000000000000000009F
:10016000000000000000000000000000000000008F
:10017000000000000000000000000000000000007F
:10018000000000002702000800F002F800F02EF83E
:100190000AA090E8000C82448344AAF10107DA45E2
:1001A00001D100F023F8AFF2090EBAE80F0013F006
:1001B000010F18BFFB1A43F0010318472404000085
:1001C000340400000023002400250026103A28BF34
:1001D00078C1FBD8520728BF30C148BF0B607047B9
:1001E0001FB500F0EFF91FBD10B510BD00F050F8BD
:1001F0001146FFF7F5FF00F091F900F06EF803B437
:10020000FFF7F2FF03BC00F075F8000009488047D3
:1002100009480047FEE7FEE7FEE7FEE7FEE7FEE7E8
:10022000FEE7FEE7FEE7FEE704480549054A064B00
:1002300070470000050300088901000860000020E5
:1002400060060020600200206002002010B5431C00
:1002500002E010F8011B71B18107FAD14FF00132B1
:1002600002C88C1A8C4314EAC211F9D0C01A0A06CB
:1002700003D0C01E10BDC01A10BD0A0401D0801EDC
:1002800010BD0902FCD0401E10BD7047704770477A
:10029000754600F02BF8AE4605006946534620F03F
:1002A0000700854618B020B5FFF7BEFFBDE8204027
:1002B0004FF000064FF000074FF000084FF0000B22
:1002C000AC46ACE8C009ACE8C009ACE8C009ACE891
:1002D000C00921F007018D46704710B50446AFF301
:1002E00000802046BDE81040FFF789BF00487047F6
:1002F0000000002001491820ABBEFEE726000200E6
:10030000704700004EF68850CEF2000001684CF2B3
:100310000C0341F47001016041F20001C4F20201DA
:100320000A68CFF67F0342F001020A604A681A4069
:100330004A600A684FF6FF73CFF6F6631A400A6008
:100340000A684FF6CC4322F480220A604A68CFF64E
:10035000007322F4FE024A60CA6A22F00F02CA62E7
:100360000A6B1A400A6300228A604FF0006140F86D
:10037000801C704744F21000C4F201000168C907F4
:1003800008BF7047016821F001010160704700005B
:1003900044F21040C4F201000168C90708BF704769
:1003A000016821F001010160704700001020C4F2D3
:1003B00000000168C90708BF7047016821F001010A
:1003C0000160704740F21040C4F200000168C907A4
:1003D00008BF7047016821F001010160704700000B
:1003E00042F20001C4F202010A6841F2040042F044
:1003F0001202C4F202000A6050F8041C41F4A02169
:1004000040F8041C50F8041C8903FBD5016841F432
:1004100080610160016841F420110160016841F4CC
:100420008031016050F8041C41F0807140F8041CD8
:1004300050F8041C8901FBD5016841F002010160FC
:100440007047000041F21400C4F20200016841F458
:1004500000310160016841F4805101600420C4F65C
:100460000000C16941F0AA4141F4AA01C1610168DB
:1004700021F0F0010160416841F47F4141604FF09B
:100480009040016841F42A41016043F20000C4F247
:1004900001003C21016041F20C7141607047000095
:1004A00041F21800C4F20200016841F480210160A9
:1004B00044F60000C4F20100016841F088010160C7
:1004C0007047000041F21400C4F2020001684FF0CE
:1004D000904C41F4003101602023DCF80020C4F688
:1004E000000303F160511143CCF80010196841F486
:1004F000E0611960596841F0E0415960816841F458
:100500000031816044F20040C4F20000016841F013
:10051000090101604FF49C71C160704700F044F81C
:1005200002A000F02BF800BFFEE700BF5374617219
:1005300074757020636F6D706C657465640A00007B
:1005400044F60001C4F201010A6800EB800022F0C9
:1005500001020A6000220A614A6241F61F428A6271
:100560004FF0FF3202EB4000C862086840F0010023
:10057000086000BF0869C007FCD0704710B504468A
:10058000FFF764FE0128B8BF10BD44F21C420021F1
:10059000C4F20002635C938113681B06FCD5013131
:1005A0008142F7D110BD000080B5FFF719FFFFF7BA
:1005B00077FFFFF787FFFFF745FF4FF4FA70FFF76C
:1005C000BFFF80BDF1EE100A4FF6FF71C0F2C031DF
:1005D00020EA010040F04070E1EE100A7047000090
:1005E000F00500080000002060060000C4010008BB
:040000050800020DE0
:00000001FF
